:060000000A128A1100291A
:10000800F000030EF1000B1914200C181F208C1897
:100018002C200B183520710E8300F00E700E09008D
:1000280003138312FB3081000B11A00A2008043C43
:100038000319A00108000313831285308F00A33031
:100048008E000C10A10AC618B9038918C80A08003E
:100058008C10B71A3228B71609153428B7120911A7
:10006800080006183C28B60A3608043C0319B601ED
:10007800861946283714B80A3808033C031D462851
:10008800B80137103608023C031D5328061A5328B6
:1000980046185128C61446145328C6104610360868
:1000A800033C031D6428061A6428091C5D28C71030
:1000B800642847186228C714471464284710C710D3
:0C00C800861C3715061DB7150B1008002C
:1002000035233C2358236523752383239923031324
:10021000831247088700B62113216921371C7C21EE
:100220004718A72109298A010A14360803398207C9
:100230001C292E2941295629F02100223222371C5F
:100240002D29381C282937191022B7191722080020
:1002500037192122B719282208000800DD22ED22D3
:100260002823371C3F29381C3A293719FD22B71992
:100270000623080037191023B7191A2308000800AD
:100280000800C6188B213F224F2281229C21371C57
:100290005529381C502937195F22B71966220800E2
:1002A00037197022B7197722080008008E229E2283
:1002B000D022B321371C6829381C63293719AE2294
:1002C000B719B52208003719BF22B719C62208008E
:1002D000080021083C3C031D6F29A101A20A220845
:1002E0003C3C031D7529A201A30A2308183C031DE9
:1002F0007B29A301A40A0800250815262402031D52
:1003000084290130A400A50A25080D3C031D8A2973
:100310000130A50008003908FF3C031D97293B3038
:10032000B9003A087F39031D96299829BA030800B5
:100330008914C610B90108004618A0298910C801FF
:1003400048083C3C031DA6298910C8010800220862
:100350003F02031DB12923084002031DB1290914DE
:10036000B22909100800C71C0910080088018A0179
:100370000A14200803398207C029CC29D829E42986
:1003800032088500371CCA29381CCA29B71ACA295D
:100390000810CB290814080033088500371CD6291B
:1003A000381CD629B71AD6290810D729881408006E
:1003B00034088500371CE229B81CE229B71AE22963
:1003C0000810E3290815080035088500371CEE29B8
:1003D000B81CEE29B71AEE290810EF298815080075
:1003E000AA012208A6002608A7000A30A602031CBC
:1003F000FD292608A700AA0AF5292708AB0008004E
:10040000AC012308A6002608A7000A30A602031C98
:100410000D2A2608A700AC0A052A2708AD00080007
:10042000A20A22083C3C0319A20137110800220845
:10043000003A03191D2AA2031F2A3B30A200B7115C
:100440000800A30A2308183C0319A3013711080068
:100450002308003A03192E2AA303302A1730A300D9
:10046000B71108002B080026B2002A080026B300A6
:100470002D080026B4002C080026B5000800BD0198
:100480003908A6002608A7000A30A602031C4C2A39
:100490002608A700BD0A442A2708BE000800BB01A1
:1004A0003A08A6002608A7000A30A602031C5C2A08
:1004B0002608A700BB0A542A2708BC000800B90A6E
:1004C00039083C3C0319B901371108003908003AD2
:1004D00003196C2AB9036E2A3B30B900B711080022
:1004E000BA0A3A08643C0319BA01371108003A08FD
:1004F000003A03197D2ABA037F2A6330BA00B71184
:1005000008003E080026B2003D080026B3003C0863
:100510000026B4003B080026B5000800C1013F08D2
:10052000A6002608A7000A30A602031C9B2A26085C
:10053000A700C10A932A2708C2000800C301400887
:10054000A6002608A7000A30A602031CAB2A26082C
:10055000A700C30AA32A2708C4000800BF0A3F084F
:100560003C3C0319BF01371108003F08003A03194A
:10057000BB2ABF03BD2A3B30BF00B7110800C00A29
:100580004008183C0319C001371108004008003A20
:100590000319CC2AC003CE2A1730C000B7110800B7
:1005A00042080026B20041080026B3004408002695
:1005B000B40043080026B5000800B0012508A600D5
:1005C0002608A7000A30A602031CEA2A2608A7006C
:1005D000B00AE22A2708B1000800AE012408A600EC
:1005E0002608A7000A30A602031CFA2A2608A7003C
:1005F000AE0AF22A2708AF000800A50A25080D3C1C
:10060000031D042B0130A500371108002508013C0B
:1006100003190C2BA5030E2B0C30A500B7110800F5
:10062000A40A250815262402031D182B0130A40056
:10063000371108002408013C0319202BA403262BA2
:1006400025081526C50001304502A400B711080091
:1006500031080026B20030080026B3002F0800261B
:10066000B4002E080026B5000800031383160F13EC
:100670008F160F160F1408000317831688018901BF
:1006800003138316850106148614061586150616AF
:100690008701880189018113151495141515951585
:1006A000151603138312850187018801890108004B
:1006B0000313831681128111011581140110031394
:1006C0008312FB3081000B110800031383121014F6
:1006D000901090119016101210130313831285308E
:1006E0008F00A3308E000C100800031383129214A5
:1006F000121412151217921612169215031383165E
:10070000F53092000800031383160C148C140313A5
:1007100083161614961416159615161603138312BF
:100720008B170B178B158B160B110C108C100B10D5
:100730000800A001A601A701A101A201A301A8012F
:10074000A901AA01AB01AC01AD01A4012414A501CA
:100750002514AE01AF01B001B101B201B401B6017F
:10076000B701B801C501B901BA01BB01BC01BD01A6
:10077000BE01BF01C001C101C201C301C401080023
:100C00008A018A140A150F3982073F3406345B348F
:100C10004F3466346D347D3407347F346F34773429
:100C20007C3439345E34793471348A018A140A157B
:100C30000F3982071F3420341D3420341F342034F0
:0E0C40001F34203420341F3420341F3420345D
:04400E00C420FF3F8C
:00000001FF
