:060000000A128A1100291A
:10000800F000030EF1000B1914200C181F208C1897
:1000180028200B182F20710E8300F00E700E090097
:1000280003138312F03081000B11A00A2008043C4E
:100038000319A00108000313831285308F00A33031
:100048008E000C10A10A08008C10861A2D2886161E
:100058002E288612080006183628BA0A3A08043CE0
:100068000319BA01861C3B14061D3B10861941284A
:10007800BB184028BB144128BB10061A48283B1956
:0C00880047283B1548283B110B100800CE
:100200009C21A321BF21CC21DC21EA21A101A20153
:10021000A301A401A501BA01031383123B088500C1
:10022000132182210E298A010A143A080339820710
:100230001C29232924292529BB18222926215521B7
:100240006521752108000800080008002108013C0C
:10025000031D3629A101A20A2208033C031D3629E9
:10026000A201A30A2308043C0319A3010800A20A5F
:1002700022083C3C0319A201080022083F39031957
:100280004329A20345293B30A2000800A30A230802
:10029000183C0319A301080023081F390319522928
:1002A000A30354291730A3000800AA012208A600BE
:1002B0002608A7000A30A602031C62292608A70008
:1002C000AA0A5A292708AB000800AC012308A60097
:1002D0002608A7000A30A602031C72292608A700D8
:1002E000AC0A6A292708AD0008002B080022B200DA
:1002F0002A080022B3002D080022B4002C08002296
:10030000B500080088018A010A1420080339820711
:100310008C2990299429982932088700081408000C
:10032000330887008814080034088700081508007F
:100330003508870088150800031383160F138F16DE
:100340000F160F1408000317831688018901031381
:100350008316850106148614061586150616861260
:100360008701880181131514951415159515151617
:100370000313831285018612870188010800031385
:10038000831681128111011181140110031383124C
:10039000F03081000B110800031383121014901029
:1003A00090119016101210130313831285308F00D2
:1003B000A3308E000C100800031383129214121441
:1003C0001215121792161216921503138316F53092
:1003D00092000800031383160C148C140313831665
:1003E00016149614161596151616031383128B17EA
:1003F0000B178B158B160B110C108C100B100800A3
:100400008A018A140F3982073F3406345B344F3433
:1004100066346D347D3407347F346F3477347C3404
:0804200039345E347934713483
:04400E00C420FF3F8C
:00000001FF
