:060000000A128A1100291A
:10000800F000030EF1000B1914200C181F208C1897
:1000180030200B183920710E8300F00E700E090085
:1000280003138312FB3081000B11A00A2008043C43
:100038000319A00108000313831285308F00A33031
:100048008E000C10A10ACC18B9038918CE0A4D19D4
:10005800CF0A371BC50A08008C10B71A3628B716FE
:1000680009153828B7120911080006184028B60AD9
:100078003608053C0319B60186194A283714B80A08
:100088003808033C031D4A28B8013710091C4E28BC
:10009800061E09103608023C031D5B28061A5B2859
:1000A8004C185928CC144C145B28CC104C1036082A
:1000B800033C031D6828061A68284D1866284D1445
:1000C800CD1468284D10CD103608043C031D732844
:1000D800061A7328371B7228371773283713861C9C
:0A00E8003715061DB7150B100800B0
:100200009E23A523C123CE23DE23EC230224031344
:1002100083124D088700D02116217021371C8321BD
:10022000CD18AE21BA21371BC32109298A010A142E
:100230003608073982072029322945295A296C298D
:100240000A221A224C22371C3129381C2C29371932
:100250002A22B7193122080037193B22B719422246
:1002600008000800F72207234223371C4329381CC3
:100270003E2937191723B7192023080037192A23D5
:10028000B7193423080008000800CC18922159221D
:1002900069229B22A321371C5929381C542937195C
:1002A0007922B7198022080037198A22B7199122BA
:1002B00008000800A822B822EA22371C6B29381C43
:1002C00066293719C822B719CF2208003719D92251
:1002D000B719E022080008004F235F23912308008C
:1002E00021083C3C031D7629A101A20A22083C3CBE
:1002F000031D7C29A201A30A2308183C031D82299F
:10030000A301A40A0800250815262402031D8B2931
:100310000130A400A50A25080D3C031D91290130D8
:10032000A50008003908FF3C031D9E293B30B90099
:100330003A087F39031D9D299F29BA0308008914B3
:10034000CC10B90108004C18A7298910CE014E081D
:100350003C3C031DAD298910CE01080022083F0254
:10036000031DB92923084002031DB9290914CD1022
:100370004D1508004F083C3C031DC22909104D11C2
:10038000CF01CD14080045083C3C031DC929C50117
:10039000C60A46083C3C031DCF29A20137130800BA
:1003A00088018A010A14200803398207DA29E6291C
:1003B000F229FE2932088500371CE429381CE4297B
:1003C000B71AE4290810E529081408003308850045
:1003D000371CF029381CF029B71AF0290810F12928
:1003E0008814080034088500371CFC29B81CFC2937
:1003F000B71AFC290810FD290815080035088500E2
:10040000371C082AB81C082AB71A082A0810092A13
:1004100088150800AA012208A6002608A7000A30AD
:10042000A602031C172A2608A700AA0A0F2A2708D3
:10043000AB000800AC012308A6002608A7000A307C
:10044000A602031C272A2608A700AC0A1F2A270891
:10045000AD000800A20A22083C3C0319A201371192
:1004600008002208003A0319372AA203392A3B3030
:10047000A200B7110800A30A2308183C0319A3011E
:10048000371108002308003A0319482AA3034A2A0F
:100490001730A300B71108002B080026B2002A0865
:1004A0000026B3002D080026B4002C080026B50055
:1004B0000800BD013908A6002608A7000A30A602D8
:1004C000031C662A2608A700BD0A5E2A2708BE006C
:1004D0000800BB013A08A6002608A7000A30A602B9
:1004E000031C762A2608A700BB0A6E2A2708BC0030
:1004F0000800B90A39083C3C0319B9013711080052
:100500003908003A0319862AB903882A3B30B90012
:10051000B7110800BA0A3A08643C0319BA01371146
:1005200008003A08003A0319972ABA03992A633057
:10053000BA00B71108003E080026B2003D080026A8
:10054000B3003C080026B4003B080026B5000800B4
:10055000C1013F08A6002608A7000A30A602031C16
:10056000B52A2608A700C10AAD2A2708C20008003C
:10057000C3014008A6002608A7000A30A602031CF3
:10058000C52A2608A700C30ABD2A2708C4000800F8
:10059000BF0A3F083C3C0319BF01371108003F0860
:1005A000003A0319D52ABF03D72A3B30BF00B71141
:1005B0000800C00A4008183C0319C00137110800A0
:1005C0004008003A0319E62AC003E82A1730C000A1
:1005D000B711080042080026B20041080026B30007
:1005E00044080026B40043080026B5000800B00106
:1005F0002508A6002608A7000A30A602031C042B23
:100600002608A700B00AFC2A2708B1000800AE019E
:100610002408A6002608A7000A30A602031C142BF3
:100620002608A700AE0A0C2B2708AF000800A50A71
:1006300025080D3C031D1E2B0130A50037110800B5
:100640002508013C0319262BA503282B0C30A500F7
:10065000B7110800A40A250815262402031D322B11
:100660000130A400371108002408013C03193A2B7B
:10067000A403402B25081526CB0001304B02A40013
:10068000B711080031080026B20030080026B30078
:100690002F080026B4002E080026B5000800C90166
:1006A0004508A6002608A7000A30A602031C5C2BFA
:1006B0002608A700C90A542B2708CA000800C7014A
:1006C0004608A6002608A7000A30A602031C6C2BC9
:1006D0002608A700C70A642B2708C8000800C50A17
:1006E00045083C3C0319C501371108004508003A8C
:1006F00003197C2BC5037E2B3B30C500B7110800C6
:10070000C60A4608643C0319C601371108004608AA
:10071000003A03198D2BC6038F2B3B30C600B7114F
:1007200008004A080026B20049080026B30048081D
:100730000026B40047080026B500080003138316FE
:100740000F138F160F160F14080003178316880156
:100750008901031383168501061486140615861570
:100760000616870188018901811315149514151542
:1007700095151516031383128501870188018901D8
:1007800008000313831681128111011581140110D1
:1007900003138312FB3081000B1108000313831233
:1007A000101490109011901610121013031383124E
:1007B00085308F00A3308E000C10080003138312C5
:1007C0009214121412151217921612169215031380
:1007D0008316F53092000800031383160C148C1452
:1007E000031383161614961416159615161603136E
:1007F00083128B170B178B158B160B110C108C108B
:100800000B100800A001A601A701A101A201A301EC
:10081000A801A901AA01AB01AC01AD01A4012414F6
:10082000A5012514AE01AF01B001B101B201B401BF
:10083000B601B701B801CB01B901BA01BB01BC01D6
:10084000BD01BE01BF01C001C101C201C301C4019C
:10085000C501C601C701C801C901CA01CC01CD014A
:06086000CE01CF010800EB
:100C00008A018A140A150F3982073F3406345B348F
:100C10004F3466346D347D3407347F346F34773429
:100C20007C3439345E34793471348A018A140A157B
:100C30000F3982071F3420341D3420341F342034F0
:0E0C40001F34203420341F3420341F3420345D
:04400E00C420FF3F8C
:00000001FF
