:060000000A128A1100291A
:10000800F000030EF1000B1914200C181F208C1897
:1000180028200B182F20710E8300F00E700E090097
:1000280003138312F03081000B11A00A2008043C4E
:100038000319A00108000313831285308F00A33031
:100048008E000C10A10A08008C10861A2D2886161E
:100058002E28861208000B1006183728B00A300818
:08006800043C0319B00108007B
:100200007A2181219D21AA21BA21C821A101A2011F
:10021000A301B00103138312112133214321602173
:100220000C298A010A143008033982071A291D296A
:100230001E291F292021532108000800080008005A
:100240002108023C031D3229A20AA1012208053C13
:10025000031D3229A30AA2012308053C031D3229EC
:10026000A40AA3010800A8012208A6002608A700E6
:100270000A30A602031C40292608A700A80A38292C
:100280002708A9000800AA012308A6002608A7003D
:100290000A30A602031C50292608A700AA0A4829EA
:1002A0002708AB00080029080022AC00280800221B
:1002B000AD002B080022AE002A080022AF00080083
:1002C00088018A010A142008033982076A296E29E5
:1002D000722976292C088700081408002D08870049
:1002E000881408002E088700081508002F088700CA
:1002F00088150800031383160F138F160F160F149B
:1003000008000317831688018901031383168501EA
:1003100006148614061586150616861287018801AE
:1003200081131514951415159515151603138312BD
:100330008501861287018801080003138316811244
:10034000811101118114011003138312F030810017
:100350000B110800031383121014901090119016C3
:10036000101210130313831285308F00A3308E00F8
:100370000C10080003138312921412141215121792
:1003800092161216921503138316F5309200080088
:10039000031383160C148C1403138316161496146B
:1003A000161596151616031383128B170B178B153C
:0C03B0008B160B110C108C100B100800A9
:100400008A018A140F3982073F3406345B344F3433
:1004100066346D347D3407347F346F3477347C3404
:0804200039345E347934713483
:04400E00C420FF3F8C
:00000001FF
