:060000000A128A1100291A
:10000800F000030EF1000B1914200C181F208C1897
:100018002A200B183120710E8300F00E700E090093
:1000280003138312F03081000B11A00A2008043C4E
:100038000319A00108000313831285308F00A33031
:100048008E000C10A10AB118B30308008C10861A90
:100058002F28861630288612080006183828B00A75
:100068003008043C0319B001861942283114B20A39
:100078003208033C031D4228B2013110061A4928F0
:10008800B1184828B1144928B110861C3115061D2D
:06009800B1150B10080079
:100200009E22A522C122CE22DE22EC22A101A20141
:10021000A301B00103138312310885001421412189
:10022000B118522163210C298A010A1430080339BC
:1002300082071D292E292F29402944225422842255
:10024000311C0800321C292931192222B119292216
:10025000080031193322B1193A220800080074222B
:1002600064229122311C0800321C3B2931190022E2
:10027000B1190722080031191122B11918220800FA
:10028000080021083C3C031D5129A101A20A2208B3
:100290003C3C031D5129A201A30A2308183C031961
:1002A000A301080033083F39031D5B293B30B3002D
:1002B000B403B1175C29B11334087F39031D6229D7
:1002C000B11BB110080088018A010A142008033903
:1002D00082076D297129752979292C08870008144E
:1002E00008002D088700881408002E0887000815CC
:0A02F00008002F0887008815080099
:10040000B30A33083C3C0319B30131110800330827
:100410003F3903190D2AB3030F2A3B30B300B11142
:100420000800B40A3408643C0319B401311108000F
:1004300034087F3903191E2AB403202A6330B4001C
:10044000B1110800A20A22083C3C0319A201311193
:10045000080022083F3903192F2AA203312A3B3012
:10046000A200B1110800A30A2308183C0319A30134
:100470003111080023081F390319402AA303422A17
:100480001730A300B1110800A8012208A400240815
:10049000A5000A30A402031C512A2408A500A80ABA
:1004A000492A2508A9000800AA012308A400240855
:1004B000A5000A30A402031C612A2408A500AA0A88
:1004C000592A2508AB000800B5013408A400240807
:1004D000A5000A30A402031C712A2408A500B50A4D
:1004E000692A2508B6000800B7013308A4002408CB
:1004F000A5000A30A402031C812A2408A500B70A1B
:10050000792A2508B800080029080026AC00280828
:100510000026AD002B080026AE002A080026AF00FA
:10052000080038080026AC0037080026AD00360861
:100530000026AE0035080026AF000800031383161E
:100540000F138F160F160F14080003178316880158
:100550008901031383168501061486140615861572
:100560000616861287018801811315149514151536
:1005700095151516031383128501861287018801CC
:1005800008000313831681128111011181140110D7
:1005900003138312F03081000B1108000313831240
:1005A0001014901090119016101210130313831250
:1005B00085308F00A3308E000C10080003138312C7
:1005C0009214121412151217921612169215031382
:1005D0008316F53092000800031383160C148C1454
:1005E0000313831616149614161596151616031370
:1005F00083128B170B178B158B160B110C108C108D
:040600000B100800D3
:100C00008A018A140A150F3982073F3406345B348F
:100C10004F3466346D347D3407347F346F34773429
:0A0C20007C3439345E3479347134C9
:04400E00C420FF3F8C
:00000001FF
