:060000000A128A1100291A
:10000800F000030EF1000B1914200C181F208C1897
:100018002E200B183720710E8300F00E700E090089
:1000280003138312FB3081000B11A00A2008043C43
:100038000319A00108000313831285308F00A33031
:100048008E000C10A10AC618B9038918C80A4719E6
:10005800C90A08008C10B71A3428B71609153628AB
:10006800B7120911080006183E28B60A3608043CDB
:100078000319B601861948283714B80A3808033C0A
:10008800031D4828B8013710091C4C28061E091002
:100098003608023C031D5928061A592846185728BD
:1000A800C61446145928C61046103608033C031DCA
:1000B8006628061A6628471864284714C71466284D
:1000C8004710C710861C3715061DB7150B100800FA
:100200003B2342235E236B237B2389239F230313FA
:10021000831247088700BC2114216921371C7C21E7
:10022000C718A721B32109298A010A1436080339FE
:1002300082071D292F2942295729F6210622382213
:10024000371C2E29381C292937191622B7191D22C7
:10025000080037192722B7192E2208000800E322C8
:10026000F3222E23371C4029381C3B29371903233E
:10027000B7190C23080037191623B71920230800D3
:1002800008000800C6188B214522552287229C2190
:10029000371C5629381C512937196522B7196C2289
:1002A000080037197622B7197D2208000800942229
:1002B000A422D622371C6829381C63293719B42296
:1002C000B719BB2208003719C522B719CC2208007C
:1002D000080021083C3C031D6F29A101A20A220845
:1002E0003C3C031D7529A201A30A2308183C031DE9
:1002F0007B29A301A40A0800250815262402031D52
:1003000084290130A400A50A25080D3C031D8A2973
:100310000130A50008003908FF3C031D97293B3038
:10032000B9003A087F39031D96299829BA030800B5
:100330008914C610B90108004618A0298910C801FF
:1003400048083C3C031DA6298910C8010800220862
:100350003F02031DB22923084002031DB2290914DC
:10036000C7104715080049083C3C031DBB2909106C
:100370004711C901C714080088018A010A1420081E
:1003800003398207C629D229DE29EA2932088500E5
:10039000371CD029381CD029B71AD0290810D129E8
:1003A0000814080033088500371CDC29381CDC29B8
:1003B000B71ADC290810DD298814080034088500E4
:1003C000371CE829B81CE829B71AE8290810E929D8
:1003D0000815080035088500371CF429B81CF429D5
:1003E000B71AF4290810F52988150800AA0122086F
:1003F000A6002608A7000A30A602031C032A260826
:10040000A700AA0AFB292708AB000800AC012308B3
:10041000A6002608A7000A30A602031C132A2608F5
:10042000A700AC0A0B2A2708AD000800A20A220880
:100430003C3C0319A201371108002208003A0319B5
:10044000232AA203252A3B30A200B7110800A30AE1
:100450002308183C0319A301371108002308003AA8
:100460000319342AA303362A1730A300B711080052
:100470002B080026B2002A080026B3002D0800260B
:10048000B4002C080026B5000800BD013908A600FC
:100490002608A7000A30A602031C522A2608A70035
:1004A000BD0A4A2A2708BE000800BB013A08A60078
:1004B0002608A7000A30A602031C622A2608A70005
:1004C000BB0A5A2A2708BC000800B90A39083C3C74
:1004D0000319B901371108003908003A0319722AC3
:1004E000B903742A3B30B900B7110800BA0A3A08B8
:1004F000643C0319BA01371108003A08003A03199D
:10050000832ABA03852A6330BA00B71108003E086F
:100510000026B2003D080026B3003C080026B400C7
:100520003B080026B5000800C1013F08A6002608C8
:10053000A7000A30A602031CA12A2608A700C10AA8
:10054000992A2708C2000800C3014008A60026080F
:10055000A7000A30A602031CB12A2608A700C30A76
:10056000A92A2708C4000800BF0A3F083C3C031919
:10057000BF01371108003F08003A0319C12ABF0321
:10058000C32A3B30BF00B7110800C00A4008183C1E
:100590000319C001371108004008003A0319D22A94
:1005A000C003D42A1730C000B71108004208002643
:1005B000B20041080026B30044080026B4004308F6
:1005C0000026B5000800B0012508A6002608A700EF
:1005D0000A30A602031CF02A2608A700B00AE82A5F
:1005E0002708B1000800AE012408A6002608A700CD
:1005F0000A30A602031C002B2608A700AE0AF82A20
:100600002708AF000800A50A25080D3C031D0A2B8A
:100610000130A500371108002508013C0319122BF1
:10062000A503142B0C30A500B7110800A40A250857
:1006300015262402031D1E2B0130A40037110800CB
:100640002408013C0319262BA4032C2B250815266E
:10065000C50001304502A400B7110800310800268A
:10066000B20030080026B3002F080026B4002E0880
:100670000026B5000800031383160F138F160F16FC
:100680000F140800031783168801890103138316CA
:10069000850106148614061586150616870188013D
:1006A0008901811315149514151595151516031345
:1006B00083128501870188018901080003138316CD
:1006C0008112811101158114011003138312FB3073
:1006D00081000B1108000313831210149010901165
:1006E0009016101210130313831285308F00A3305D
:1006F0008E000C10080003138312921412141215AA
:10070000121792161216921503138316F5309200E3
:100710000800031383160C148C1403138316161489
:100720009614161596151616031383128B170B17AE
:100730008B158B160B110C108C100B100800A001E0
:10074000A601A701A101A201A301A801A901AA0173
:10075000AB01AC01AD01A4012414A5012514AE0127
:10076000AF01B001B101B201B401B601B701B801E6
:10077000C501B901BA01BB01BC01BD01BE01BF0188
:10078000C001C101C201C301C401C601C701C80142
:04079000C901080093
:100C00008A018A140A150F3982073F3406345B348F
:100C10004F3466346D347D3407347F346F34773429
:100C20007C3439345E34793471348A018A140A157B
:100C30000F3982071F3420341D3420341F342034F0
:0E0C40001F34203420341F3420341F3420345D
:04400E00C420FF3F8C
:00000001FF
