:060000000A128A1100291A
:10000800F000030EF1000B1914200C181F208C1897
:100018002A200B183120710E8300F00E700E090093
:1000280003138312F03081000B11A00A2008043C4E
:100038000319A00108000313831285308F00A33031
:100048008E000C10A10AB118B30308008C10B11A65
:100058002F28B1163028B112080006183828B00A1F
:100068003008043C0319B001861942283114B20A39
:100078003208033C031D4228B2013110061A4928F0
:10008800B1184828B1144928B110861C3115061D2D
:06009800B1150B10080079
:100200008F229622B422C122D122DF22A101A20193
:10021000A301B301B401B901BA01B0010313831200
:100220003108850019215921B1186A217D218821C1
:1002300010298A010A143008033982072229342937
:1002400035294729A221B221E421311C3329321C4E
:100250002E293119C221B119C92108003119D32120
:10026000B119DA21080008000800F1210122332227
:10027000311C4629321C412931191122B119182289
:10028000080031192222B119292208000800402251
:1002900050228222311C5829321C532931196022E4
:1002A000B1196722080031197122B11978220800AA
:1002B000080021083C3C031D6929A101A20A22086B
:1002C0003C3C031D6929A201A30A2308183C031919
:1002D000A301080033083F39031D76293B30B300E2
:1002E00034087F390319B117B4037729B113B11F4B
:1002F0007C29B401B301B110080022083902031DA2
:10030000862923083A0203190914872909100800CD
:1003100088018A010A142008033982079229962944
:100320009A299E292C088700081408002D088700A8
:10033000881408002E088700081508002F08870079
:1003400088150800A8012208A4002408A5000A3086
:10035000A402031CAF292408A500A80AA729250880
:10036000A9000800AA012308A4002408A5000A3057
:10037000A402031CBF292408A500AA0AB72925083E
:10038000AB000800A20A22083C3C0319A20131116B
:10039000080022083F390319CF29A203D1293B3095
:1003A000A200B1110800A30A2308183C0319A301F5
:1003B0003111080023081F390319E029A303E2299A
:1003C0001730A300B111080029080026AC00280846
:1003D0000026AD002B080026AE002A080026AF003C
:1003E0000800B7013308A4002408A5000A30A402BD
:1003F000031CFE292408A500B70AF6292508B80021
:100400000800B5013408A4002408A5000A30A4029D
:10041000031C0E2A2408A500B50A062A2508B600E2
:100420000800B30A33083C3C0319B301311108003A
:1004300033083F3903191E2AB303202A3B30B30087
:10044000B1110800B40A3408643C0319B401311135
:10045000080034087F3903192F2AB403312A633086
:10046000B400B111080038080026AC003708002697
:10047000AD0036080026AE0035080026AF000800A3
:10048000BB013908A4002408A5000A30A402031CFB
:100490004D2A2408A500BB0A452A2508BC000800EF
:1004A000BD013A08A4002408A5000A30A402031CD8
:1004B0005D2A2408A500BD0A552A2508BE000800AB
:1004C000B90A39083C3C0319B9013111080039084F
:1004D0003F3903196D2AB9036F2A3B30B900B111B6
:1004E0000800BA0A3A08183C0319BA013111080089
:1004F0003A081F3903197E2ABA03802A1730BA0036
:10050000B11108003C080026AC003B080026AD00F5
:100510003E080026AE003D080026AF000800031389
:1005200083160F138F160F160F1408000317831668
:1005300088018901031383168501061486140615A4
:100540008615061686128701880189018113151404
:10055000951415159515151603138312850186122A
:100560008701880189010800031383168112811114
:1005700001118114011003138312F03081000B115B
:10058000080003138312101490109011901610128B
:1005900010130313831285308F00A3308E000C10CC
:1005A00008000313831292141214121512179216D4
:1005B0001216921503138316F530920008000313E8
:1005C00083160C148C140313831616149614161524
:1005D00096151616031383128B170B178B158B1694
:0A05E0000B110C108C100B1008001A
:100C00008A018A140A150F3982073F3406345B348F
:100C10004F3466346D347D3407347F346F34773429
:0A0C20007C3439345E3479347134C9
:04400E00C420FF3F8C
:00000001FF
