:060000000A128A1100291A
:10000800F000030EF1000B1914200C181F208C1897
:100018002A200B183120710E8300F00E700E090093
:1000280003138312F03081000B11A00A2008043C4E
:100038000319A00108000313831285308F00A33031
:100048008E000C10A10AB718B90308008C10B71A53
:100058002F28B7163028B712080006183828B60A0D
:100068003608043C0319B601861942283714B80A21
:100078003808033C031D4228B8013710061A4928DE
:10008800B7184828B7144928B710861C3715061D15
:06009800B7150B10080073
:100200000C23132331233E234E235C23A101A2019F
:10021000A301B901BA01BF01C001B60103138312E2
:10022000370885001B216D21371C8021B7188F21CD
:10023000A221AD2110298A010A1436080339820748
:100240002429362949295B29C721D7210922371CAE
:100250003529381C30293719E721B719EE21080054
:100260003719F821B719FF2108000800B422C42269
:10027000FF22371C4729381C42293719D422B719C5
:10028000DD2208003719E722B719F122080008001B
:100290000800162226225822371C5A29381C5529B4
:1002A00037193622B7193D22080037194722B719E6
:1002B0004E220800080065227522A722371C6C29EF
:1002C000381C672937198522B7198C22080037197D
:1002D0009622B7199D220800080021083C3C031D06
:1002E0007329A101A20A22083C3C031D7929A2011D
:1002F000A30A2308183C031D7F29A301A40A0800B0
:10030000250815262402031D88290130A400A50A0A
:1003100025080D3C031D8E290130A5000800390871
:100320003F39031D9B293B30B9003A087F39031937
:10033000B717BA039C29B713B71FA129BA01B9018E
:10034000B710080022083F02031DAB292308400212
:1003500003190914AC290910080088018A010A143C
:10036000200803398207B729BB29BF29C3293208CE
:100370008700081408003308870088140800340830
:100380008700081508003508870088150800AA01AD
:100390002208A6002608A7000A30A602031CD429BA
:1003A0002608A700AA0ACC292708AB000800AC0140
:1003B0002308A6002608A7000A30A602031CE42989
:1003C0002608A700AC0ADC292708AD000800A20A0D
:1003D00022083C3C0319A201371108002208003A08
:1003E0000319F429A203F6293B30A200B711080033
:1003F000A30A2308183C0319A30137110800230896
:10040000003A0319052AA303072A1730A300B711DE
:1004100008002B080026B2002A080026B3002D0889
:100420000026B4002C080026B5000800BD013908DC
:10043000A6002608A7000A30A602031C232A2608C5
:10044000A700BD0A1B2A2708BE000800BB013A0806
:10045000A6002608A7000A30A602031C332A260895
:10046000A700BB0A2B2A2708BC000800B90A3908D4
:100470003C3C0319B901371108003908003A031947
:10048000432AB903452A3B30B900B7110800BA0A1C
:100490003A08643C0319BA01371108003A08003AD7
:1004A0000319542ABA03562A6330BA00B711080058
:1004B0003E080026B2003D080026B3003C08002696
:1004C000B4003B080026B5000800C1013F08A600A3
:1004D0002608A7000A30A602031C722A2608A700D5
:1004E000C10A6A2A2708C2000800C3014008A60002
:1004F0002608A7000A30A602031C822A2608A700A5
:10050000C30A7A2A2708C4000800BF0A3F083C3CF7
:100510000319BF01371108003F08003A0319922A56
:10052000BF03942A3B30BF00B7110800C00A40083F
:10053000183C0319C001371108004008003A03199C
:10054000A32AC003A52A1730C000B711080042082B
:100550000026B20041080026B30044080026B4007B
:1005600043080026B5000800B0012508A6002608AB
:10057000A7000A30A602031CC12A2608A700B00A59
:10058000B92A2708B1000800AE012408A6002608F1
:10059000A7000A30A602031CD12A2608A700AE0A2B
:1005A000C92A2708AF000800A50A25080D3C031D2D
:1005B000DB2A0130A500371108002508013C03198A
:1005C000E32AA503E52A0C30A500B7110800A40A08
:1005D000250815262402031DEF2A0130A400371137
:1005E00008002408013C0319F72AA403FD2A250862
:1005F0001526C50001304502A400B71108003108D6
:100600000026B20030080026B3002F080026B400F0
:100610002E080026B5000800031383160F138F164B
:100620000F160F140800031783168801890103139E
:10063000831685010614861406158615061686127D
:1006400087018801890181131514951415159515D5
:10065000151603138312850186128701880189010B
:1006600008000313831681128111011181140110F6
:1006700003138312F03081000B110800031383125F
:10068000101490109011901610121013031383126F
:1006900085308F00A3308E000C10080003138312E6
:1006A00092141214121512179216121692150313A1
:1006B0008316F53092000800031383160C148C1473
:1006C000031383161614961416159615161603138F
:1006D00083128B170B178B158B160B110C108C10AC
:0406E0000B100800F3
:100C00008A018A140A150F3982073F3406345B348F
:100C10004F3466346D347D3407347F346F34773429
:100C20007C3439345E34793471348A018A140A157B
:100C30000F3982071F3420341D3420341F342034F0
:0E0C40001F34203420341F3420341F3420345D
:04400E00C420FF3F8C
:00000001FF
