:060000000A128A1100291A
:10000800F000030EF1000B1914200C181F208C1897
:1000180030200B183920710E8300F00E700E090085
:1000280003138312FB3081000B11A00A2008043C43
:100038000319A00108000313831285308F00A33031
:100048008E000C10A10ACC18B9038918CE0A4D19D4
:10005800CF0A371BC50A08008C10B71A3628B716FE
:1000680009153828B7120911080006184028B60AD9
:100078003608053C0319B60186194A283714B80A08
:100088003808033C031D4A28B8013710091C5028BA
:10009800061A50280910CD113608023C031D5D28A8
:1000A800061A5D284C185B28CC144C145D28CC101B
:1000B8004C103608033C031D6A28061A6A284D1896
:1000C80068284D14CD146A284D10CD103608043C0C
:1000D800031D7928061A7528371B742837177528C1
:1000E800371386187928C501C601861C3715061DE1
:0600F800B7150B10080013
:1002000097239E23BA23C723D723E523FB23031376
:100210008312EB2117218221371C9521CC18A421B0
:10022000B521CD18C021CD21371BDE2109298A0136
:100230000A14360807398207212937294E296429EB
:100240007A29870187154D1807152522352267223F
:10025000371C3629381C312937194522B7194C2249
:10026000080037195622B7195D22080008008701D7
:1002700007164D180715122322235D23371C4C291E
:10028000381C472937193223B7193B23080037197F
:100290004523B7194F230800080008008701871677
:1002A0004D18071574228422B622371C6329381C86
:1002B0005E2937199422B7199B2208003719A52205
:1002C000B719AC2208000800870107174D18071559
:1002D000C322D3220523371C7929381C74293719E6
:1002E000E322B719EA2208003719F422B719FB22D2
:1002F00008000800870187174D1807156A237A231D
:100300008A23080021083C3C031D8829A101A20A78
:1003100022083C3C031D8E29A201A30A2308183C95
:10032000031D9429A301A40A080025081526240208
:10033000031D9D290130A400A50A25080D3C031DBD
:10034000A3290130A50008003908FF3C031DB0298E
:100350003B30B9003A087F39031DAF29B129BA03F0
:1003600008008914CC10B90108004C18B92989106B
:10037000CE014E083C3C031DBF298910CE01080068
:1003800022083F02031DCC2923084002031DCC296B
:100390000914CD104D15CD150800CD1DD429B71A5F
:1003A000D3290910D42909144F083C3C031DDD2929
:1003B00009104D11CF01CD14CD11080045083C3C6A
:1003C000031DE429C501C60A4608643C031DEA2949
:1003D000C6013713080088018A010A14200803396E
:1003E0008207F529012A0D2A192A32088500371CAF
:1003F000FF29381CFF29B71AFF290810002A081402
:10040000080033088500371C0B2A381C0B2AB71A42
:100410000B2A88100C2A8814080034088500371C21
:10042000172AB81C172AB71A172A0811182A0815EC
:10043000080035088500371C232AB81C232AB71A60
:10044000232A8811242A88150800AA012208A60058
:100450002608A7000A30A602031C322A2608A70095
:10046000AA0A2A2A2708AB000800AC012308A60024
:100470002608A7000A30A602031C422A2608A70065
:10048000AC0A3A2A2708AD000800A20A22083C3C20
:100490000319A201371108002208003A0319522A51
:1004A000A203542A3B30A200B7110800A30A230874
:1004B000183C0319A301371108002308003A031957
:1004C000632AA303652A1730A300B71108002B087D
:1004D0000026B2002A080026B3002D080026B4002A
:1004E0002C080026B5000800BD013908A600260822
:1004F000A7000A30A602031C812A2608A700BD0A0D
:10050000792A2708BE000800BB013A08A600260881
:10051000A7000A30A602031C912A2608A700BB0ADE
:10052000892A2708BC000800B90A39083C3C03198D
:10053000B901371108003908003A0319A12AB90393
:10054000A32A3B30B900B7110800BA0A3A08643C44
:100550000319BA01371108003A08003A0319B22A00
:10056000BA03B42A6330BA00B71108003E08002667
:10057000B2003D080026B3003C080026B4003B084A
:100580000026B5000800C1013F08A6002608A70004
:100590000A30A602031CD02A2608A700C10AC82ACE
:1005A0002708C2000800C3014008A6002608A700CB
:1005B0000A30A602031CE02A2608A700C30AD82A8C
:1005C0002708C4000800BF0A3F083C3C0319BF01CC
:1005D000371108003F08003A0319F02ABF03F22A36
:1005E0003B30BF00B7110800C00A4008183C03198F
:1005F000C001371108004008003A0319012BC0035D
:10060000032B1730C000B711080042080026B200C3
:1006100041080026B30044080026B4004308002621
:10062000B5000800B0012508A6002608A7000A307A
:10063000A602031C1F2B2608A700B00A172B2708A9
:10064000B1000800AE012408A6002608A7000A3061
:10065000A602031C2F2B2608A700AE0A272B27086B
:10066000AF000800A50A25080D3C031D392B0130F9
:10067000A500371108002508013C0319412BA503EB
:10068000432B0C30A500B7110800A40A2508152635
:100690002402031D4D2B0130A4003711080024084B
:1006A000013C0319552BA4035B2B25081526CB0011
:1006B00001304B02A400B711080031080026B20037
:1006C00030080026B3002F080026B4002E080026AC
:1006D000B5000800C9014508A6002608A7000A3091
:1006E000A602031C772B2608A700C90A6F2B270830
:1006F000CA000800C7014608A6002608A7000A305D
:10070000A602031C872B2608A700C70A7F2B2708F1
:10071000C80008004A080026B20049080026B300B5
:1007200048080026B40047080026B5000800031357
:1007300083160F138F160F160F1408000317831656
:100740008801890103138316850106148614061592
:1007500086150616870188018901811315149514E1
:100760001515951515160313831285018701880148
:100770008901080003138316811281110115811468
:10078000011003138312FB3081000B1108000313C7
:10079000831210149010901190161012101303135E
:1007A000831285308F00A3308E000C1008000313D5
:1007B0008312921412141215121792161216921511
:1007C00003138316F53092000800031383160C14EC
:1007D0008C140313831616149614161596151616F4
:1007E000031383128B170B178B158B160B110C1021
:1007F0008C100B100800A001A601A701A101A20105
:10080000A301A801A901AA01AB01AC01AD01A4019A
:100810002414A5012514AE01AF01B001B101B2014C
:10082000B401B601B701B801CB01B901BA01BB01EE
:10083000BC01BD01BE01BF01C001C101C201C301B4
:10084000C401C501C601C701C801C901CA01CC0163
:08085000CD01CE01CF0108002B
:100C00008A018A140A150F3982073F3406345B348F
:100C10004F3466346D347D3407347F346F34773429
:100C20007C3439345E34793471348A018A140A157B
:100C30000F3982071F3420341D3420341F342034F0
:0E0C40001F34203420341F3420341F3420345D
:04400E00C420FF3F8C
:00000001FF
