:060000000A128A1100291A
:10000800F000030EF1000B1914200C181F208C1897
:100018002A200B183120710E8300F00E700E090093
:1000280003138312F03081000B11A00A2008043C4E
:100038000319A00108000313831285308F00A33031
:100048008E000C10A10AB118B30308008C10861A90
:100058002F28861630288612080006183828B00A75
:100068003008043C0319B001861942283114B20A39
:100078003208033C031D4228B2013110061A4928F0
:10008800B1184828B1144928B110861C3115061D2D
:06009800B1150B10080079
:100200001F22262242224F225F226D22A101A2013B
:10021000A301B00103138312310885001421432187
:10022000B118542167210C298A010A1430080339B6
:1002300082071D292F293029422981219121C3219B
:10024000311C2E29321C29293119A121B119A821CB
:1002500008003119B221B119B921080008000800BD
:10026000D021E0211222311C4129321C3C293119B4
:10027000F021B119F721080031190122B119082222
:1002800008000800080021083C3C031D5329A10177
:10029000A20A22083C3C031D5329A201A30A2308F9
:1002A000183C0319A301080033083F39031D6029D6
:1002B0003B30B30034087F390319B117B403612907
:1002C000B113B11F6629B401B301B1100800880150
:1002D0008A010A14200803398207712975297929AE
:1002E0007D292C088700081408002D088700881431
:1002F00008002E088700081508002F0887008815B9
:100300000800A8012208A4002408A5000A30A402BD
:10031000031C8E292408A500A80A86292508A900FF
:100320000800AA012308A4002408A5000A30A4029A
:10033000031C9E292408A500AA0A96292508AB00BB
:100340000800A20A22083C3C0319A201311108004E
:1003500022083F390319AE29A203B0293B30A2007D
:10036000B1110800A30A2308183C0319A301311195
:10037000080023081F390319BF29A303C129173017
:10038000A300B111080029080026AC0028080026A7
:10039000AD002B080026AE002A080026AF0008009A
:1003A000B7013308A4002408A5000A30A402031CE6
:1003B000DD292408A500B70AD5292508B8000800BA
:1003C000B5013408A4002408A5000A30A402031CC7
:1003D000ED292408A500B50AE5292508B60008007E
:1003E000B30A33083C3C0319B30131110800330848
:1003F0003F390319FD29B303FF293B30B300B11185
:100400000800B40A3408643C0319B401311108002F
:1004100034087F3903190E2AB403102A6330B4005C
:10042000B111080038080026AC0037080026AD00DE
:1004300036080026AE0035080026AF00080003137A
:1004400083160F138F160F160F1408000317831649
:100450008801890103138316850106148614061585
:1004600086150616861287018801811315149514C6
:10047000151595151516031383128501861287012C
:100480008801080003138316811281110111811460
:10049000011003138312F03081000B1108000313C5
:1004A0008312101490109011901610121013031351
:1004B000831285308F00A3308E000C1008000313C8
:1004C0008312921412141215121792161216921504
:1004D00003138316F53092000800031383160C14DF
:1004E0008C140313831616149614161596151616E7
:1004F000031383128B170B178B158B160B110C1014
:060500008C100B10080036
:100C00008A018A140A150F3982073F3406345B348F
:100C10004F3466346D347D3407347F346F34773429
:0A0C20007C3439345E3479347134C9
:04400E00C420FF3F8C
:00000001FF
