:060000000A128A1100291A
:10000800F000030EF1000B1914200C181F208C1897
:100018002A200B183320710E8300F00E700E090091
:1000280003138312FB3081000B11A00A2008043C43
:100038000319A00108000313831285308F00A33031
:100048008E000C10A10AB718B90308008C10B71A53
:100058003028B71609153228B712091108000618F2
:100068003A28B60A3608043C0319B601861944280A
:100078003714B80A3808033C031D4428B801371060
:10008800061A4B28B7184A28B7144B28B710861CED
:0A0098003715061DB7150B10080000
:1002000026232D2349235623662374238A2303138D
:10021000831237088700A72114216621371C792112
:10022000B71888219C2109298A010A143608033944
:1002300082071D292F2942295429E121F121232256
:10024000371C2E29381C292937190122B7190822F1
:10025000080037191222B719192208000800CE2207
:10026000DE221923371C4029381C3B293719EE227E
:10027000B719F722080037190123B7190B23080013
:1002800008000800302240227222371C5329381CF3
:100290004E2937195022B719572208003719612201
:1002A000B7196822080008007F228F22C122371C5C
:1002B0006529381C602937199F22B719A622080022
:1002C0003719B022B719B7220800080021083C3CB2
:1002D000031D6C29A101A20A22083C3C031D7229BE
:1002E000A201A30A2308183C031D7829A301A40A2C
:1002F0000800250815262402031D81290130A400C9
:10030000A50A25080D3C031D87290130A50008001A
:1003100039083F39031D95293B30B9003A087F3928
:10032000031D9429B7179629BA03B713B71F9B2942
:10033000BA01B901B710080022083F02031DA52920
:100340002308400203190914A6290910080088018E
:100350008A010A14200803398207B129BD29C92955
:10036000D52932088500371CBB29381CBB29B71A90
:10037000BB290810BC290814080033088500371C65
:10038000C729381CC729B71AC7290810C8298814D3
:10039000080034088500371CD329B81CD329B71AA4
:1003A000D3290810D4290815080035088500371C02
:1003B000DF29B81CDF29B71ADF290810E0298815C2
:1003C0000800AA012208A6002608A7000A30A602F3
:1003D000031CEE292608A700AA0AE6292708AB0075
:1003E0000800AC012308A6002608A7000A30A602D0
:1003F000031CFE292608A700AC0AF6292708AD0031
:100400000800A20A22083C3C0319A2013711080087
:100410002208003A03190E2AA203102A3B30A20038
:10042000B7110800A30A2308183C0319A3013711C8
:1004300008002308003A03191F2AA303212A1730B2
:10044000A300B71108002B080026B2002A080026D6
:10045000B3002D080026B4002C080026B5000800C3
:10046000BD013908A6002608A7000A30A602031C11
:100470003D2A2608A700BD0A352A2708BE00080025
:10048000BB013A08A6002608A7000A30A602031CF2
:100490004D2A2608A700BB0A452A2708BC000800E9
:1004A000B90A39083C3C0319B90137110800390869
:1004B000003A03195D2AB9035F2A3B30B900B7112E
:1004C0000800BA0A3A08643C0319BA013711080057
:1004D0003A08003A03196E2ABA03702A6330BA0048
:1004E000B71108003E080026B2003D080026B30000
:1004F0003C080026B4003B080026B5000800C101F6
:100500003F08A6002608A7000A30A602031C8C2A72
:100510002608A700C10A842A2708C2000800C301D0
:100520004008A6002608A7000A30A602031C9C2A41
:100530002608A700C30A942A2708C4000800BF0A97
:100540003F083C3C0319BF01371108003F08003A3F
:100550000319AC2ABF03AE2A3B30BF00B711080015
:10056000C00A4008183C0319C001371108004008B0
:10057000003A0319BD2AC003BF2A1730C000B711C3
:10058000080042080026B20041080026B3004408D3
:100590000026B40043080026B5000800B001250875
:1005A000A6002608A7000A30A602031CDB2A26089C
:1005B000A700B00AD32A2708B1000800AE0124081A
:1005C000A6002608A7000A30A602031CEB2A26086C
:1005D000A700AE0AE32A2708AF000800A50A2508ED
:1005E0000D3C031DF52A0130A50037110800250830
:1005F000013C0319FD2AA503FF2A0C30A500B71101
:100600000800A40A250815262402031D092B013021
:10061000A400371108002408013C0319112BA4037E
:10062000172B25081526C50001304502A400B71177
:10063000080031080026B20030080026B3002F0859
:100640000026B4002E080026B50008000313831608
:100650000F138F160F160F14080003178316880147
:100660008901031383168501061486140615861561
:100670000616870188018901811315149514151533
:1006800095151516031383128501870188018901C9
:1006900008000313831681128111011581140110C2
:1006A00003138312FB3081000B1108000313831224
:1006B000101490109011901610121013031383123F
:1006C00085308F00A3308E000C10080003138312B6
:1006D0009214121412151217921612169215031371
:1006E0008316F53092000800031383160C148C1443
:1006F000031383161614961416159615161603135F
:1007000083128B170B178B158B160B110C108C107B
:100710000B100800A001A601A701A101A201A301DD
:10072000A801A901AA01AB01AC01AD01A4012414E7
:10073000A5012514AE01AF01B001B101B201B401B0
:10074000B601B701B801C501B901BA01BB01BC01CD
:10075000BD01BE01BF01C001C101C201C301C4018D
:0207600008008F
:100C00008A018A140A150F3982073F3406345B348F
:100C10004F3466346D347D3407347F346F34773429
:100C20007C3439345E34793471348A018A140A157B
:100C30000F3982071F3420341D3420341F342034F0
:0E0C40001F34203420341F3420341F3420345D
:04400E00C420FF3F8C
:00000001FF
