:060000000A128A1100291A
:10000800F000030EF1000B1914200C181F208C1897
:1000180029200B183020710E8300F00E700E090095
:1000280003138312F03081000B11A00A2008043C4E
:100038000319A00108000313831285308F00A33031
:100048008E000C10311CA10A08008C10861A2E286C
:1000580086162F288612080006183728B00A300896
:10006800043C0319B001861941283114B20A320838
:10007800033C031D4128B2013110061A4828B11863
:100088004728B1144828B110861C3115061DB11532
:040098000B10080041
:10020000A921B021CC21D921E921F721A101A20105
:10021000A301B001031383123108850011218F213E
:100220000C298A010A143008033982071A292C295B
:100230002D292E292F21622172218221311C0800B3
:10024000321C272931194021B119472108003119E1
:100250005121B119582108000800080008002108A0
:100260003C3C031D3F29A101A20A22083C3C031D7E
:100270003F29A201A30A2308183C0319A30108007F
:10028000A20A22083C3C0319A201311108002208ED
:100290003F3903194D29A2034F293B30A200B11168
:1002A0000800A30A2308183C0319A3013111080010
:1002B00023081F3903195E29A30360291730A300FF
:1002C000B1110800A8012208A4002408A5000A30E2
:1002D000A402031C6F292408A500A80A6729250881
:1002E000A9000800AA012308A4002408A5000A30D8
:1002F000A402031C7F292408A500AA0A772925083F
:10030000AB00080029080024AC0028080024AD0038
:100310002B080024AE002A080024AF000800880142
:100320008A010A1420080339820799299D29A129E5
:10033000A5292C088700081408002D0887008814B8
:1003400008002E088700081508002F088700881568
:100350000800031383160F138F160F160F140800CF
:100360000317831688018901031383168501061478
:1003700086140615861506168612870188018113D4
:10038000151495141515951515160313831285016B
:1003900086128701880108000313831681128111D8
:1003A00001118114011003138312F03081000B112D
:1003B000080003138312101490109011901610125D
:1003C00010130313831285308F00A3308E000C109E
:1003D00008000313831292141214121512179216A6
:1003E0001216921503138316F530920008000313BA
:1003F00083160C148C1403138316161496141615F6
:1004000096151616031383128B170B178B158B1665
:0A0410000B110C108C100B100800EB
:100800008A010A150F3982073F3406345B344F34AE
:1008100066346D347D3407347F346F3477347C3400
:0808200039345E34793471347F
:04400E00C420FF3F8C
:00000001FF
